:03000000020FE309
:0C0FE300787FE4F6D8FD75812102102A09
:0D17B6004141256400505319250905191AF9
:1013550045000000000000004A007D3CFE181818FA
:051365001818C828283B
:1012430090000012054300000000E4900000F090BD
:101253000000F0A3F0F594F593F592F591F596F56A
:1012630095F5B2F5B1F5B4F5B3F5CAF5C9F5CCF515
:10127300CBF5E2F5E1C28312174612172A120003D7
:101283007BFF7A1779BB1212FCE4FF7E07900053B1
:0F129300E4F0A3DEFC7F647E001215F502172A3B
:10116F0078877C007D017BFF7A1779C27E007F0133
:10117F0012045B900000E004F07006900000E004A1
:10118F00F090000E74FFF0A37417F0A374B6F090F4
:10119F000000E0FFA3E0900011CFF0A3EFF07B0180
:1011AF007A00798812008B7B017A007988E4FDFF41
:1011BF001212A2900000E0FEA3E0FF7C037DE81274
:0A11CF0004AC900000ECF0A3EDF07A
:0111D90022F3
:0811DA00900098EEF0A3EFF085
:1011E200E490009CF0A3F090009AF0A3F090009895
:1011F200E0FEA3E0FFC390009BE09F90009AE09E78
:10120200503EE490009CF0A3F090009CE0FEA3E02E
:10121200FFE4FCFD7BFF7AFFF9F8D312052D4010A5
:1012220090009DE004F070E190009CE004F080D911
:1012320090009BE004F070B590009AE004F080AD5D
:011242002289
:1015F500900000EEF0A3EFF0D3900001E09400908E
:101605000000E0940040157F011217F4900001E0FE
:0C16150024FFF0900000E034FFF080DCC7
:0116210022A6
:0B17D000007E19DEFEAE071FEE70F574
:0117DB0022EB
:0C17DC00AE071FEE600500000080F52243
:0B17E8000000007F0B7EBEDEFEDFFC79
:0117F30022D3
:02178900AD07AA
:0D178B00E4FCECC39D50061217E80C80F53D
:01179800222E
:0A17F4007E6C7D91DDFEDEFCDFF669
:0117FE0022C8
:100F4D004448543232CEDECFECD3A6007B227465FA
:100F5D006D7065726174757265223A2532642E2545
:100F6D003164252C2268756D6964697479223A257E
:100F7D0032642E2531647D0D0A007B2268756D6902
:100F8D0064697479223A2532642E253164252C2228
:100F9D0074656D7065726174757265223A2D2532B6
:100FAD00642E2531647D0D0A00483D2532642E25C1
:100FBD003164252520543D2532642E2531644300AE
:100FCD00483D2532642E2531642520543D2D253292
:060FDD00642E25316400C2
:08136A004516760000000000AA
:0817A800D2841217B01217B031
:0517B000007F19DFFEBF
:0117B5002211
:1014FD00EFF012150EA90712150EAB0712150EAA55
:01150D0007D6
:10150E00E4FDFC3084FD1217AA1217B0E4FE3084FD
:10151E00010E2084FDED25E02EFD0CECB408E4AFA9
:01152E0005B7
:01152F002299
:101676007F02208406AE070FEE70F7EFB401037FFA
:1016860000227F02308406AE070FEE70F7EFB4013A
:06169600037F00227F012A
:01169C00222B
:1005F900D2841217B0C2847F141217891217A81255
:100609001676EF6401702E12150E90007C1214FDFF
:10061900D284EB2AFEE0FD2E296F70269000A4ED0E
:10062900F0AE01A3EEF0AE03A3EEF0AE02A3EEF03E
:10063900A3EFF0800D7BFF7A0F794DE4FD7F021265
:1006490012A29000A4E0FEA3E07C002400FFEC3E8F
:10065900900072F0A3EFF0900072E0FAA3E0FB7D46
:100669000AFFAE021204ACA3EEF0A3EFF07C007D0A
:100679000AAF03AE021204ACA3ECF0A3EDF09000B4
:10068900A6E0FFC394804003020712EFFEA3E07CBB
:10069900002400FFEC3E900072F0A3EFF09000728E
:1006A900E0FAA3E0FB7D0AFFAE021204AC900078E9
:1006B900EEF0A3EFF07C007D0AAF03AE021204ACAA
:1006C900A3ECF0A3EDF090000E74FFF0A3740FF00B
:1006D900A37459F0900078E0FFA3E0900011CFF0E7
:1006E900A3EFF0A3ECF0A3EDF0900074E0FFA3E01A
:1006F900900015CFF0A3EFF0900076E0FFA3E09013
:100709000017CFF0A3EF0207949000A6E02480FF22
:10071900EFFEA3E07C002400FFEC3E900072F0A302
:10072900EFF0900072E0FAA3E0FB7D0AFFAE02123F
:1007390004AC900078EEF0A3EFF07C007D0AAF03E3
:10074900AE021204ACA3ECF0A3EDF090000E74FF1E
:10075900F0A3740FF0A37487F0900074E0FFA3E096
:10076900900011CFF0A3EFF0900076E0FFA3E090A6
:100779000013CFF0A3EFF0900078E0FFA3E0900022
:1007890015CFF0A3EFF0A3ECF0A3EDF07B017A0015
:08079900790012008B0217E841
:1007A100D2841217B0C2847F141217891217A812AB
:1007B1001676EF6401702C12150E90000A1214FDCA
:1007C100D284EB2AFEE0FD2E29B507179000A4ED97
:1007D100F0AE01A3EEF0AE03A3EEF0AE02A3EEF095
:1007E100A3EFF09000A4E0FEA3E07C002400FFEC66
:1007F1003E900000F0A3EFF0900000E0FAA3E0FBD0
:100801007D0AFFAE021204ACA3EEF0A3EFF07C0070
:100811007D0AAF03AE021204ACA3ECF0A3EDF0909D
:1008210000A6E0FFC39480504AEFFEA3E07C0024C1
:1008310000FFEC3E900000F0A3EFF0900000E0FA22
:10084100A3E0FB7D0AFFAE021204AC900006EEF0BD
:10085100A3EFF07C007D0AAF03AE021204ACA3EC5F
:10086100F0A3EDF090000E74FFF0A3740FF0A374E9
:10087100B6804F9000A6E02480FFEFFEA3E07C004D
:100881002400FFEC3E900000F0A3EFF0900000E0A8
:10089100FAA3E0FB7D0AFFAE021204AC900006EE63
:1008A100F0A3EFF07C007D0AAF03AE021204ACA30B
:1008B100ECF0A3EDF090000E74FFF0A3740FF0A321
:1008C10074CDF0900002E0FFA3E0900011CFF0A3FF
:1008D100EFF0900004E0FFA3E0900013CFF0A3EF4E
:1008E100F0900006E0FFA3E0900015CFF0A3EFF039
:1008F100A3ECF0A3EDF07B017A00790012008B02EA
:0209010017E8F5
:10106F00C8D5C6DAA3BA3230253032642D253032D6
:10107F00642D2530326400CAB1BCE4A3BA253032E6
:10108F00643A253032643A2530326400CEC2B6C895
:10109F00A3BA2532642E2531644300CEC2B6C8A34D
:1010AF00BA2D2532642E2531644300CAAAB6C8A3CF
:1010BF00BA2532642E253164252500483D2532643A
:1010CF002E253164252520543D2532642E2531648B
:1010DF004300483D2532642E253164252520543D9B
:0A10EF002D2532642E2531644300E4
:0813720045009E000000000090
:080CA5009000B0EFF0A3EDF0A8
:100CAD00900059E0FB540FF9EB54F0C4540FFF7E44
:100CBD00007C007D0A12049AE92FFFEC3EFEC3EF83
:100CCD009464EE9400500890005CEEF0A3EFF09069
:100CDD000057E0FB540FF9EB54F0C4540FFF7E00A6
:100CED007C007D0A12049AE92FFFEC3EFEC3EF94BF
:100CFD000DEE9400500890005AEEF0A3EFF0900026
:100D0D0056E0FB540FF9EB54F0C4540FFF7E007CFA
:100D1D00007D0A12049AEF29FFEC3EFEC3EF9420EA
:100D2D00EE94005008900060EEF0A3EFF090000EEE
:100D3D0074FFF0A37410F0A3746FF090005CE0FFEB
:100D4D00A3E0900011CFF0A3EFF090005AE0FFA3C5
:100D5D00E0900013CFF0A3EFF0900060E0FFA3E070
:100D6D00900015CFF0A3EFF07B017A0079331200DC
:100D7D008B9000B0E0FFA3E0FD7B017A0079331288
:050D8D0012A20217E8AC
:0809030090009EEFF0A3EDF05F
:10090B00900055E0FB540FFF9000A2E4F0A3EFF032
:10091B00EB54F0C4540FFF9000A0E4F0A3EFF09061
:10092B0000A0E0FEA3E0FF7C007D0A12049A900079
:10093B00A3E02FFF9000A2E03EFEC3EF9418EE94CD
:10094B00005008900062EEF0A3EFF0900054E0FB33
:10095B00540FFF9000A2E4F0A3EFF0EB54F0C4545B
:10096B000FFF9000A0E4F0A3EFF09000A0E0FEA337
:10097B00E0FF7C007D0A12049A9000A3E02FFF9009
:10098B0000A2E03EFEC3EF943CEE940050089000B2
:10099B0064EEF0A3EFF0900053E0FB540FFF9000D8
:1009AB00A2E4F0A3EFF0EB54F0C4540FFF7E0090E1
:1009BB0000A0EEF0A3EFF07C007D0A12049A9000E9
:1009CB00A3E02FFF9000A2E03EFEC3EF943CEE9419
:1009DB0000500890005EEEF0A3EFF090000E74FF55
:1009EB00F0A37410F0A37486F0900062E0FFA3E014
:1009FB00900011CFF0A3EFF0900064E0FFA3E09024
:100A0B000013CFF0A3EFF090005EE0FFA3E09000A7
:100A1B0015CFF0A3EFF07B017A00793312008B90A6
:100A2B00009EE0FFA3E0FD7B017A0079331212A256
:030A3B000217E8B7
:080E7300900090EFF0A3EDF0F8
:100E7B009000A6E0FFC394805048EFFEA3E07C00F7
:100E8B002400FFEC3E900092F0A3EFF0900092E074
:100E9B00FAA3E0FB7D0AFFAE021204ACA3EEF0A3B3
:100EAB00EFF07C007D0AAF03AE021204ACA3ECF0B2
:100EBB00A3EDF090000E74FFF0A37410F0A3749BDD
:100ECB00804D9000A6E02480FFEFFEA3E07C002481
:100EDB0000FFEC3E900092F0A3EFF0900092E0FA4E
:100EEB00A3E0FB7D0AFFAE021204ACA3EEF0A3EF6E
:100EFB00F07C007D0AAF03AE021204ACA3ECF0A3AE
:100F0B00EDF090000E74FFF0A37410F0A374AAF030
:100F1B00900094E0FFA3E0900011CFF0A3EFF0A3BB
:100F2B00ECF0A3EDF07B017A00793312008B90008B
:100F3B0090E0FFA3E0FD7B017A0079331212A2024D
:020F4B0017E8A5
:0810F9009000A9EFF0A3EDF057
:101101009000A4E0FEA3E07C002400FFEC3EAB07CE
:10111100FA7D0AFE1204AC9000ABEEF0A3EFF0AE44
:1011210002AF037C007D0A1204AC90000E74FFF044
:10113100A37410F0A374BAF09000ABE0FFA3E090A9
:101141000011CFF0A3EFF0AE04AF05A3EEF0A3EFD3
:10115100F07B017A00793312008B9000A9E0FFA3A4
:0E116100E0FD7B017A0079331212A20217E83A
:080A3E00900066EFF0A3EDF05B
:100A46009000A4E0FEA3E07C002400FFEC3E9000B2
:100A560068F0A3EFF0900068E0FAA3E0FB7D0AFFE0
:100A6600AE021204ACA3EEF0A3EFF07C007D0AAF59
:100A760003AE021204ACA3ECF0A3EDF09000A6E0E6
:100A8600FFC39480504AEFFEA3E07C002400FFECF5
:100A96003E900068F0A3EFF0900068E0FAA3E0FB58
:100AA6007D0AFFAE021204AC90006EEEF0A3EFF0EA
:100AB6007C007D0AAF03AE021204ACA3ECF0A3EDFA
:100AC600F090000E74FFF0A37410F0A374CA804F68
:100AD6009000A6E02480FFEFFEA3E07C002400FF48
:100AE600EC3E900068F0A3EFF0900068E0FAA3E017
:100AF600FB7D0AFFAE021204AC90006EEEF0A3EF8F
:100B0600F07C007D0AAF03AE021204ACA3ECF0A3A6
:100B1600EDF090000E74FFF0A37410F0A374E1F0F2
:100B260090006AE0FFA3E0900011CFF0A3EFF090F1
:100B3600006CE0FFA3E0900013CFF0A3EFF090006D
:100B46006EE0FFA3E0900015CFF0A3EFF0A3ECF06A
:100B5600A3EDF07B017A00793312008B900066E0FA
:100B6600FFA3E0FD7B017A0079331212A20217E897
:10164E00C8D5C6DA3230253032642D253032642DBD
:10165E002530326400CAB1BCE4253032643A2530FC
:08166E0032643A2530326400B9
:08137A00450000000000000026
:1015C600900008EFF0E4900007F0C2A77F02121720
:1015D600DC900008E0C313F092A600D2A77F0212A7
:0E15E60017DC900007E004F0E0C3940840DC3E
:0115F40022D4
:10149000E4900006F0900005F0C2A77F021217DC6E
:1014A000900006E0C313F030A604E04480F0D2A719
:1014B0007F021217DC900005E004F0E0C3940840BE
:0614C000D8900006E0FFD9
:0114C6002203
:10141A00900005EFF0A3EDF0C2A57F011217DCC220
:10142A00A77F011217DCD2A57F021217DC900005F4
:10143A00E0FF1215C6900006E0FF1215C6D2A77F7C
:0B144A00011217DCC2A57F010217DCB5
:05139F00900003EFF0D7
:1013A400C2A57F011217DCC2A77F011217DCD2A5E8
:1013B4007F021217DC900003E0FF1215C61214908E
:1013C400900004EFF0D2A77F011217DCC2A57F01C1
:0813D4001217DC900004E0FF99
:0113DC0022EE
:0B12FC00900000EBF0A3EAF0A3E9F083
:101307009000047480F0E4FD7F8E12141A9000039D
:101317007407F0900004E0FF900000E0FBA3E0FA00
:10132700A3E0F9120481FD12141A900001E475F08C
:1013370001120501900004E02402F0900003E0147C
:0E134700F0E0D3940050CC7D807F8E02141A0B
:101455009000027481F0E4900000F0900002E0FF3B
:1014650012139F900000E02453F582E43400F583C5
:10147500EFF0900002E02402F0900000E004F0E0BC
:0B148500C3940740D6120D92020B76B4
:100D9200900059E0FB540FF9EB54F0C4540FFF7E5E
:100DA200007C007D0A12049AE92FFFEC3EFEC3EF9D
:100DB2009464EE9400500890005CEEF0A3EFF09083
:100DC2000057E0FB540FF9EB54F0C4540FFF7E00C0
:100DD2007C007D0A12049AE92FFFEC3EFEC3EF94D9
:100DE2000DEE9400500890005AEEF0A3EFF0900040
:100DF20056E0FB540FF9EB54F0C4540FFF7E007C15
:100E0200007D0A12049AEF29FFEC3EFEC3EF942004
:100E1200EE94005008900060EEF0A3EFF090000E08
:100E220074FFF0A37416F0A3744EF090005CE0FF20
:100E3200A3E0900011CFF0A3EFF090005AE0FFA3DF
:100E4200E0900013CFF0A3EFF0900060E0FFA3E08A
:100E5200900015CFF0A3EFF07B017A007900120029
:100E62008B7B017A007900E4FD7F011212A2021746
:010E7200E897
:100B7600900055E0FB540FFF900005E4F0A3EFF062
:100B8600EB54F0C4540FFF900003E4F0A3EFF09091
:100B96000003E0FEA3E0FF7C007D0A12049A9000A9
:100BA60006E02FFF900005E03EFEC3EF9418EE949A
:100BB600005008900062EEF0A3EFF0900054E0FBC6
:100BC600540FFF900005E4F0A3EFF0EB54F0C4548B
:100BD6000FFF900003E4F0A3EFF0900003E0FEA304
:100BE600E0FF7C007D0A12049A900006E02FFF9039
:100BF6000005E03EFEC3EF943CEE940050089000E2
:100C060064EEF0A3EFF0900053E0FB540FFF90006A
:100C160005E4F0A3EFF0EB54F0C4540FFF7E009010
:100C26000003EEF0A3EFF07C007D0A12049A900018
:100C360006E02FFF900005E03EFEC3EF943CEE94E5
:100C460000500890005EEEF0A3EFF090000E74FFE7
:100C5600F0A37416F0A37463F0900062E0FFA3E0C3
:100C6600900011CFF0A3EFF0900064E0FFA3E090B6
:100C76000013CFF0A3EFF090005EE0FFA3E090003A
:100C860015CFF0A3EFF07B017A00790012008B7B81
:0F0C9600017A007900E4FD7F021212A20217E832
:10000300C2A5C2A7E4FD7F8E12141AE4FD7F8012FD
:10001300141AE4FD7F9012141A7D807F8E02141A45
:10170A008081828384858687909192939495969717
:10171A0088898A8B8C8D8E8F98999A9B9C9D9E9F87
:0813820045000000000000001E
:1016C4001216D5EC54F0FF1216D5AF04EFC454F043
:0116D400FF16
:1016D500E4FEC282EF25E0FF9281D282C2820EEE45
:0316E500B408EF57
:0116E80022DF
:1014C700E4FFFEFDEE25E0FEC282D282C2823081B9
:1014D700010E0DEDB408EDE4FDEF25E0FFC282D269
:1014E70082C2823081010F0DEDB408EDEF540FFF7A
:0514F700EE54F02FFF90
:0114FC0022CD
:0D17C3007FFC1216D51214C7EF20E7F422A8
:10159600E0FF900007E075F008A42FF582E435F02F
:1015A600F583E582240AF582E5833417F583E4930F
:0115B600FF35
:0F15B700AC07D2801217C37FF81216C4C280226D
:0F179900AC07D2801217C37FFA1216C4C2802287
:101746007F301215B77F031215B77F0C1215B77FBE
:09175600011215B77F060215B758
:10153000AB07AA05EB14600C14600D14600E2403B5
:101540007B80800A7B9080067B8880027B98EA54AF
:1015500007FA7F301215B7EA2BFF1215B7EA2BFFF7
:031560000215B7BA
:10172A007F301215B77F801215B7E4FB7F2012179E
:0C173A00990BEBB440F6E4FDFF02153003
:1012A200900007EFF0A3EDF07F301215B7121596FC
:1012B2001204816044900008E0B40808E4F0900051
:1012C20007E004F0900007E0B40402E4F0900008A4
:1012D200121596120481FF121799740129F9E43A42
:1012E200FA120481FF60C9121799740129F9E43ACC
:0A12F200FA900008E004F080B72233
:0216E900AB074D
:1016EB007F301215B7EB75F008A4240AF582E412CB
:0E16FB0015B0E4FB7F201217990BEBB410F62C
:0117090022BD
:08138A004500A4000000000072
:1016220012124312172A1214557F0A7E001215F560
:101632001207A17B017A007900E4FD7F031212A256
:0C1642007FF41217897F2C12178980DAC0
:0C13920045000000000000004100B21AFD
:1013DD00E4F594F593F592F591F596F595F5B2F54D
:1013ED00B1F5B4F5B3F5CAF5C9F5CCF5CBF5E2F524
:1013FD00E1E5A2543FF5A27598DA758E40E4F589C2
:0D140D00758BE0758DFED28ED2ACD2AF2271
:0300230002175F62
:10175F00C0D0309809C298859980A29A92A23099E8
:08176F0004C299C200D0D0327F
:101777002000FDEF30D004D29B8002C29BD200F53F
:021787009922A5
:101563009000ADEBF0A3EAF0A3E9F09000ADE0FB4F
:10157300A3E0FAA3E0F912048160179000ADA3E49D
:1015830075F001120517A9F0FA120481FF121777FB
:0315930080D922DA
:100FEF00021622E493A3F8E493A34003F68001F2E0
:100FFF0008DFF48029E493A3F85407240CC8C33303
:10100F00C4540F4420C8834004F456800146F6DFD1
:10101F00E4800B0102040810204080901355E47EF9
:10102F00019360BCA3FF543F30E509541FFEE493C6
:10103F00A360010ECF54C025E060A840B8E493A38D
:10104F00FAE493A3F8E493A3C8C582C8CAC583CAB8
:10105F00F0A3C8C582C8CAC583CADFE9DEE780BE70
:01139E00004E
:10038B00E709F608DFFA8046E709F208DFFA803E54
:10039B0088828C83E709F0A3DFFA8032E309F60841
:1003AB00DFFA8078E309F208DFFA807088828C83A9
:1003BB00E309F0A3DFFA806489828A83E0A3F6085D
:1003CB00DFFA805889828A83E0A3F208DFFA804C37
:1003DB0080D280FA80C680D4806980F2803380100E
:1003EB0080A680EA809A80A880DA80E280CA803377
:1003FB0089828A83ECFAE493A3C8C582C8CCC583EF
:10040B00CCF0A3C8C582C8CCC583CCDFE9DEE780BE
:10041B000D89828A83E493A3F608DFF9ECFAA9F03D
:10042B00EDFB2289828A83ECFAE0A3C8C582C8CC93
:10043B00C583CCF0A3C8C582C8CCC583CCDFEADEAC
:10044B00E880DB89828A83E493A3F208DFF980CC0E
:10045B0088F0EF60010E4E60C388F0ED2402B40407
:10046B000050B9F582EB2402B4040050AF232345AE
:06047B0082239003DB73F5
:10048100BB010689828A83E0225002E722BBFE0279
:09049100E32289828A83E49322AC
:10049A00EF8DF0A4A8F0CF8CF0A428CE8DF0A42E76
:0204AA00FE2230
:1004AC00BC000BBE0029EF8DF084FFADF022E4CC34
:1004BC00F875F008EF2FFFEE33FEEC33FCEE9DECFD
:1004CC00984005FCEE9DFE0FD5F0E9E4CEFD22ED43
:1004DC00F8F5F0EE8420D21CFEADF075F008EF2F8D
:1004EC00FFED33FD4007985006D5F0F222C398FD7E
:0504FC000FD5F0EA221B
:10050100C5F0F8A3E028F0C5F0F8E5821582700285
:060511001583E038F02222
:10051700A3F8E0C5F025F0F0E58215827002158397
:06052700E0C838F0E822F4
:10052D00EB9FF5F0EA9E42F0E99D42F0EC6480C845
:06053D0064809845F022E5
:10054300A8828583F0D083D08212055A12055A12ED
:10055300055A12055AE473E493A3C583C5F0C58312
:10056300C8C582C8F0A3C583C5F0C583C8C582C802
:010573002265
:10002600E508240EF582E43400F583E00508229005
:10003600000B30070390000EE475F0011205B302C1
:1000460004812000E97F2ED2008018EF540F2490FF
:10005600D43440D4FF30040BEF24BFB41A0050034D
:100066002461FFE50960021509050CE50C7002051F
:100076000B30070E90000BE475F0011205B3EF028A
:1000860005A102169D7403D2078003E4C207F50892
:1000960090000B1205CAE4F509F50BF50CE50960AD
:1000A600077F2012006980F5750AFFC201C200C2EF
:1000B60002C203C205C206C208120035FF700D3027
:1000C60007057F0012007AAF0CAE0B22B4255FC283
:1000D600D5C204120035FF24D0B40A00501A75F0B8
:1000E6000A780930D50508B6FF0106C6A426F6200B
:1000F600D5047002D20380D924CFB41A00EF50047D
:10010600C2E5D20402027BD20180C6D20080C0D2F0
:100116000280BCD2D580BAD20580B47F2012006995
:100126002002077401B5090040F1120026FF1200F3
:10013600690200A3D208D2068095120026FB12009F
:1001460026FA120026F94A4B7006794C7A037BFF91
:1001560020022EE509602A7E008E82758300120534
:100166007460060EEE650A70F0C2D5EBC0E0EAC018
:10017600E0E9C0E0EE1202C2D0E0F9D0E0FAD0E049
:10018600FB120481FF60AAEBC0E0EAC0E0E9C0E030
:10019600120069D0E02401F9D0E03400FAD0E0FB87
:1001A600E50A0460DCD50AD980877BFF7A0279BE2E
:1001B600D202809C791080027908C206C2088008A3
:1001C600D2D5790A8004790AC2D5E50A047002F507
:1001D6000AE4FAFDFEFF120026FC7B08200113123A
:1001E6000026FD7B1030000A120026FE120026FFB4
:1001F6007B20EC3382D592D55013C3E43000069FA2
:10020600FFE49EFEE42001039DFDE49CFCE4CBF8A4
:10021600C201EC700CCFCECDCCE824F8F870F38098
:1002260017C3EF33FFEE33FEED33FDEC33FCEB3358
:10023600FB994002FB0FD8E9EB300105F8D0E0C48A
:1002460048B201C0E00AEC4D4E4F78207B0070C2E8
:10025600EAB50A0040BCC0E01202C4D0F0D0E020EB
:100266000104C4C0E0C4B201C0F0120052D0F0D5FF
:10027600F0EB0200A31205D301405301BA58011155
:100286004C010D4201BE4F01C64401C64901264339
:0802960001CC5501B04601B096
:10029E004501B047036C5001152D01192E013C2B61
:1002AE00011D23013A2003552A00D54800000134D0
:1002BE003F3F3F00790AA2D5200314300509B9103B
:1002CE00020404B9080104A2D5200602500104203C
:1002DE0002689202B509005034C0E07F2030031945
:1002EE007F30A20272067205500F12031BC202C2A9
:1002FE0006C205C2087F30800F300503E9C0E01248
:10030E000069300503D0E0F9D0E0B509CC3005170F
:10031E007F30B9100C1200697F583004077F788047
:10032E0003B908031200693002057F2D0200697FB0
:10033E00202008F87F2B2006F322920280CF286E11
:10034E00756C6C2900D2011200263001F8C20178BA
:10035E000930D50108F60200D52D50434958120038
:10036E00262403B405004001E49003679312005A5B
:0D037E00743A12005AD2037509040201BA44
:10057400BB010CE58229F582E5833AF583E022503C
:1005840006E92582F8E622BBFE06E92582F8E22286
:0D059400E58229F582E5833AF583E49322A0
:1005A100BB010689828A83F0225002F722BBFE0139
:0205B100F32233
:1005B300F8E0FBA3A3E0F925F0F0E58215827002D1
:0705C3001583E0FA38F02275
:0905CA00EBF0A3EAF0A3E9F02232
:1005D300D083D082F8E4937012740193700DA3A3B7
:1005E30093F8740193F5828883E4737402936860CB
:0605F300EFA3A3A380DFCB
:10169D00EFB40A07740D1216A8740A309811A899A0
:1016AD00B8130CC2983098FDA899C298B811F630AD
:0716BD0099FDC299F5992285
:00000001FF
